{
	"contracts/Bank.sol": {
		"Bank": {
			"abi": [
				{
					"inputs": [
						{
							"internalType": "address",
							"name": "account",
							"type": "address"
						},
						{
							"internalType": "uint256",
							"name": "amount",
							"type": "uint256"
						},
						{
							"internalType": "uint256",
							"name": "balance",
							"type": "uint256"
						}
					],
					"name": "WithdrawalAmountExceedsBalance",
					"type": "error"
				},
				{
					"inputs": [
						{
							"internalType": "address",
							"name": "account",
							"type": "address"
						}
					],
					"name": "WithdrawalAmountZero",
					"type": "error"
				},
				{
					"anonymous": false,
					"inputs": [
						{
							"indexed": true,
							"internalType": "address",
							"name": "account",
							"type": "address"
						},
						{
							"indexed": false,
							"internalType": "uint256",
							"name": "amount",
							"type": "uint256"
						}
					],
					"name": "Deposit",
					"type": "event"
				},
				{
					"anonymous": false,
					"inputs": [
						{
							"indexed": true,
							"internalType": "address",
							"name": "account",
							"type": "address"
						},
						{
							"indexed": false,
							"internalType": "uint256",
							"name": "amount",
							"type": "uint256"
						}
					],
					"name": "Withdrawal",
					"type": "event"
				},
				{
					"inputs": [
						{
							"internalType": "address",
							"name": "account",
							"type": "address"
						}
					],
					"name": "balanceOf",
					"outputs": [
						{
							"internalType": "uint256",
							"name": "",
							"type": "uint256"
						}
					],
					"stateMutability": "view",
					"type": "function"
				},
				{
					"inputs": [],
					"name": "deposit",
					"outputs": [],
					"stateMutability": "payable",
					"type": "function"
				}
			],
			"devdoc": {
				"errors": {
					"WithdrawalAmountExceedsBalance(address,uint256,uint256)": [
						{
							"details": "Генерируется, когда сумма снятия превышает баланс счёта.",
							"params": {
								"account": "Адрес аккаунта, который пытался снять средства.",
								"amount": "Сумма, которую пытались снять.",
								"balance": "Текущий баланс аккаунта."
							}
						}
					],
					"WithdrawalAmountZero(address)": [
						{
							"details": "Генерируется, когда пытаются снять нулевую сумму.",
							"params": {
								"account": "Адрес аккаунта, который пытался снять средства."
							}
						}
					]
				},
				"events": {
					"Deposit(address,uint256)": {
						"details": "Генерируется, когда на счёт аккаунта поступает депозит.",
						"params": {
							"account": "Адрес аккаунта, на который был сделан депозит.",
							"amount": "Сумма, которая была внесена."
						}
					},
					"Withdrawal(address,uint256)": {
						"details": "Генерируется, когда со счёта снимаются средства.",
						"params": {
							"account": "Адрес счёта, с которого произошло снятие.",
							"amount": "Сумма, которая была снята."
						}
					}
				},
				"kind": "dev",
				"methods": {
					"balanceOf(address)": {
						"details": "Возвращает баланс счёта.",
						"params": {
							"account": "Адрес счёта."
						},
						"returns": {
							"_0": "Баланс счёта."
						}
					},
					"deposit()": {
						"details": "Вносит средства на счёт."
					}
				},
				"version": 1
			},
			"evm": {
				"assembly": "    /* \"contracts/Bank.sol\":93:631  contract Bank is INativeBank {... */\n  mstore(0x40, 0x80)\n  callvalue\n  dup1\n  iszero\n  tag_1\n  jumpi\n  revert(0x00, 0x00)\ntag_1:\n  pop\n  dataSize(sub_0)\n  dup1\n  dataOffset(sub_0)\n  0x00\n  codecopy\n  0x00\n  return\nstop\n\nsub_0: assembly {\n        /* \"contracts/Bank.sol\":93:631  contract Bank is INativeBank {... */\n      mstore(0x40, 0x80)\n      jumpi(tag_1, lt(calldatasize, 0x04))\n      shr(0xe0, calldataload(0x00))\n      dup1\n      0x70a08231\n      eq\n      tag_2\n      jumpi\n      dup1\n      0xd0e30db0\n      eq\n      tag_3\n      jumpi\n    tag_1:\n      revert(0x00, 0x00)\n        /* \"contracts/Bank.sol\":178:285  function balanceOf(address account) external view returns(uint256){... */\n    tag_2:\n      callvalue\n      dup1\n      iszero\n      tag_4\n      jumpi\n      revert(0x00, 0x00)\n    tag_4:\n      pop\n      tag_5\n      0x04\n      dup1\n      calldatasize\n      sub\n      dup2\n      add\n      swap1\n      tag_6\n      swap2\n      swap1\n      tag_7\n      jump\t// in\n    tag_6:\n      tag_8\n      jump\t// in\n    tag_5:\n      mload(0x40)\n      tag_9\n      swap2\n      swap1\n      tag_10\n      jump\t// in\n    tag_9:\n      mload(0x40)\n      dup1\n      swap2\n      sub\n      swap1\n      return\n        /* \"contracts/Bank.sol\":291:448  function deposit() external payable {... */\n    tag_3:\n      tag_11\n      tag_12\n      jump\t// in\n    tag_11:\n      stop\n        /* \"contracts/Bank.sol\":178:285  function balanceOf(address account) external view returns(uint256){... */\n    tag_8:\n        /* \"contracts/Bank.sol\":236:243  uint256 */\n      0x00\n        /* \"contracts/Bank.sol\":261:269  balances */\n      0x00\n        /* \"contracts/Bank.sol\":261:278  balances[account] */\n      0x00\n        /* \"contracts/Bank.sol\":270:277  account */\n      dup4\n        /* \"contracts/Bank.sol\":261:278  balances[account] */\n      0xffffffffffffffffffffffffffffffffffffffff\n      and\n      0xffffffffffffffffffffffffffffffffffffffff\n      and\n      dup2\n      mstore\n      0x20\n      add\n      swap1\n      dup2\n      mstore\n      0x20\n      add\n      0x00\n      keccak256\n      sload\n        /* \"contracts/Bank.sol\":254:278  return balances[account] */\n      swap1\n      pop\n        /* \"contracts/Bank.sol\":178:285  function balanceOf(address account) external view returns(uint256){... */\n      swap2\n      swap1\n      pop\n      jump\t// out\n        /* \"contracts/Bank.sol\":291:448  function deposit() external payable {... */\n    tag_12:\n        /* \"contracts/Bank.sol\":357:358  0 */\n      0x00\n        /* \"contracts/Bank.sol\":345:354  msg.value */\n      callvalue\n        /* \"contracts/Bank.sol\":345:358  msg.value > 0 */\n      gt\n        /* \"contracts/Bank.sol\":337:398  require(msg.value > 0, \"an attemp to depozit a zero amount.\") */\n      tag_15\n      jumpi\n      mload(0x40)\n      0x08c379a000000000000000000000000000000000000000000000000000000000\n      dup2\n      mstore\n      0x04\n      add\n      tag_16\n      swap1\n      tag_17\n      jump\t// in\n    tag_16:\n      mload(0x40)\n      dup1\n      swap2\n      sub\n      swap1\n      revert\n    tag_15:\n        /* \"contracts/Bank.sol\":432:441  msg.value */\n      callvalue\n        /* \"contracts/Bank.sol\":408:416  balances */\n      0x00\n        /* \"contracts/Bank.sol\":408:428  balances[msg.sender] */\n      0x00\n        /* \"contracts/Bank.sol\":417:427  msg.sender */\n      caller\n        /* \"contracts/Bank.sol\":408:428  balances[msg.sender] */\n      0xffffffffffffffffffffffffffffffffffffffff\n      and\n      0xffffffffffffffffffffffffffffffffffffffff\n      and\n      dup2\n      mstore\n      0x20\n      add\n      swap1\n      dup2\n      mstore\n      0x20\n      add\n      0x00\n      keccak256\n      0x00\n        /* \"contracts/Bank.sol\":408:441  balances[msg.sender] += msg.value */\n      dup3\n      dup3\n      sload\n      tag_18\n      swap2\n      swap1\n      tag_19\n      jump\t// in\n    tag_18:\n      swap3\n      pop\n      pop\n      dup2\n      swap1\n      sstore\n      pop\n        /* \"contracts/Bank.sol\":291:448  function deposit() external payable {... */\n      jump\t// out\n        /* \"#utility.yul\":88:205   */\n    tag_21:\n        /* \"#utility.yul\":197:198   */\n      0x00\n        /* \"#utility.yul\":194:195   */\n      0x00\n        /* \"#utility.yul\":187:199   */\n      revert\n        /* \"#utility.yul\":334:460   */\n    tag_23:\n        /* \"#utility.yul\":371:378   */\n      0x00\n        /* \"#utility.yul\":411:453   */\n      0xffffffffffffffffffffffffffffffffffffffff\n        /* \"#utility.yul\":404:409   */\n      dup3\n        /* \"#utility.yul\":400:454   */\n      and\n        /* \"#utility.yul\":389:454   */\n      swap1\n      pop\n        /* \"#utility.yul\":334:460   */\n      swap2\n      swap1\n      pop\n      jump\t// out\n        /* \"#utility.yul\":466:562   */\n    tag_24:\n        /* \"#utility.yul\":503:510   */\n      0x00\n        /* \"#utility.yul\":532:556   */\n      tag_39\n        /* \"#utility.yul\":550:555   */\n      dup3\n        /* \"#utility.yul\":532:556   */\n      tag_23\n      jump\t// in\n    tag_39:\n        /* \"#utility.yul\":521:556   */\n      swap1\n      pop\n        /* \"#utility.yul\":466:562   */\n      swap2\n      swap1\n      pop\n      jump\t// out\n        /* \"#utility.yul\":568:690   */\n    tag_25:\n        /* \"#utility.yul\":641:665   */\n      tag_41\n        /* \"#utility.yul\":659:664   */\n      dup2\n        /* \"#utility.yul\":641:665   */\n      tag_24\n      jump\t// in\n    tag_41:\n        /* \"#utility.yul\":634:639   */\n      dup2\n        /* \"#utility.yul\":631:666   */\n      eq\n        /* \"#utility.yul\":621:684   */\n      tag_42\n      jumpi\n        /* \"#utility.yul\":680:681   */\n      0x00\n        /* \"#utility.yul\":677:678   */\n      0x00\n        /* \"#utility.yul\":670:682   */\n      revert\n        /* \"#utility.yul\":621:684   */\n    tag_42:\n        /* \"#utility.yul\":568:690   */\n      pop\n      jump\t// out\n        /* \"#utility.yul\":696:835   */\n    tag_26:\n        /* \"#utility.yul\":742:747   */\n      0x00\n        /* \"#utility.yul\":780:786   */\n      dup2\n        /* \"#utility.yul\":767:787   */\n      calldataload\n        /* \"#utility.yul\":758:787   */\n      swap1\n      pop\n        /* \"#utility.yul\":796:829   */\n      tag_44\n        /* \"#utility.yul\":823:828   */\n      dup2\n        /* \"#utility.yul\":796:829   */\n      tag_25\n      jump\t// in\n    tag_44:\n        /* \"#utility.yul\":696:835   */\n      swap3\n      swap2\n      pop\n      pop\n      jump\t// out\n        /* \"#utility.yul\":841:1170   */\n    tag_7:\n        /* \"#utility.yul\":900:906   */\n      0x00\n        /* \"#utility.yul\":949:951   */\n      0x20\n        /* \"#utility.yul\":937:946   */\n      dup3\n        /* \"#utility.yul\":928:935   */\n      dup5\n        /* \"#utility.yul\":924:947   */\n      sub\n        /* \"#utility.yul\":920:952   */\n      slt\n        /* \"#utility.yul\":917:1036   */\n      iszero\n      tag_46\n      jumpi\n        /* \"#utility.yul\":955:1034   */\n      tag_47\n      tag_21\n      jump\t// in\n    tag_47:\n        /* \"#utility.yul\":917:1036   */\n    tag_46:\n        /* \"#utility.yul\":1075:1076   */\n      0x00\n        /* \"#utility.yul\":1100:1153   */\n      tag_48\n        /* \"#utility.yul\":1145:1152   */\n      dup5\n        /* \"#utility.yul\":1136:1142   */\n      dup3\n        /* \"#utility.yul\":1125:1134   */\n      dup6\n        /* \"#utility.yul\":1121:1143   */\n      add\n        /* \"#utility.yul\":1100:1153   */\n      tag_26\n      jump\t// in\n    tag_48:\n        /* \"#utility.yul\":1090:1153   */\n      swap2\n      pop\n        /* \"#utility.yul\":1046:1163   */\n      pop\n        /* \"#utility.yul\":841:1170   */\n      swap3\n      swap2\n      pop\n      pop\n      jump\t// out\n        /* \"#utility.yul\":1176:1253   */\n    tag_27:\n        /* \"#utility.yul\":1213:1220   */\n      0x00\n        /* \"#utility.yul\":1242:1247   */\n      dup2\n        /* \"#utility.yul\":1231:1247   */\n      swap1\n      pop\n        /* \"#utility.yul\":1176:1253   */\n      swap2\n      swap1\n      pop\n      jump\t// out\n        /* \"#utility.yul\":1259:1377   */\n    tag_28:\n        /* \"#utility.yul\":1346:1370   */\n      tag_51\n        /* \"#utility.yul\":1364:1369   */\n      dup2\n        /* \"#utility.yul\":1346:1370   */\n      tag_27\n      jump\t// in\n    tag_51:\n        /* \"#utility.yul\":1341:1344   */\n      dup3\n        /* \"#utility.yul\":1334:1371   */\n      mstore\n        /* \"#utility.yul\":1259:1377   */\n      pop\n      pop\n      jump\t// out\n        /* \"#utility.yul\":1383:1605   */\n    tag_10:\n        /* \"#utility.yul\":1476:1480   */\n      0x00\n        /* \"#utility.yul\":1514:1516   */\n      0x20\n        /* \"#utility.yul\":1503:1512   */\n      dup3\n        /* \"#utility.yul\":1499:1517   */\n      add\n        /* \"#utility.yul\":1491:1517   */\n      swap1\n      pop\n        /* \"#utility.yul\":1527:1598   */\n      tag_53\n        /* \"#utility.yul\":1595:1596   */\n      0x00\n        /* \"#utility.yul\":1584:1593   */\n      dup4\n        /* \"#utility.yul\":1580:1597   */\n      add\n        /* \"#utility.yul\":1571:1577   */\n      dup5\n        /* \"#utility.yul\":1527:1598   */\n      tag_28\n      jump\t// in\n    tag_53:\n        /* \"#utility.yul\":1383:1605   */\n      swap3\n      swap2\n      pop\n      pop\n      jump\t// out\n        /* \"#utility.yul\":1611:1780   */\n    tag_29:\n        /* \"#utility.yul\":1695:1706   */\n      0x00\n        /* \"#utility.yul\":1729:1735   */\n      dup3\n        /* \"#utility.yul\":1724:1727   */\n      dup3\n        /* \"#utility.yul\":1717:1736   */\n      mstore\n        /* \"#utility.yul\":1769:1773   */\n      0x20\n        /* \"#utility.yul\":1764:1767   */\n      dup3\n        /* \"#utility.yul\":1760:1774   */\n      add\n        /* \"#utility.yul\":1745:1774   */\n      swap1\n      pop\n        /* \"#utility.yul\":1611:1780   */\n      swap3\n      swap2\n      pop\n      pop\n      jump\t// out\n        /* \"#utility.yul\":1786:2008   */\n    tag_30:\n        /* \"#utility.yul\":1926:1960   */\n      0x616e20617474656d7020746f206465706f7a69742061207a65726f20616d6f75\n        /* \"#utility.yul\":1922:1923   */\n      0x00\n        /* \"#utility.yul\":1914:1920   */\n      dup3\n        /* \"#utility.yul\":1910:1924   */\n      add\n        /* \"#utility.yul\":1903:1961   */\n      mstore\n        /* \"#utility.yul\":1995:2000   */\n      0x6e742e0000000000000000000000000000000000000000000000000000000000\n        /* \"#utility.yul\":1990:1992   */\n      0x20\n        /* \"#utility.yul\":1982:1988   */\n      dup3\n        /* \"#utility.yul\":1978:1993   */\n      add\n        /* \"#utility.yul\":1971:2001   */\n      mstore\n        /* \"#utility.yul\":1786:2008   */\n      pop\n      jump\t// out\n        /* \"#utility.yul\":2014:2380   */\n    tag_31:\n        /* \"#utility.yul\":2156:2159   */\n      0x00\n        /* \"#utility.yul\":2177:2244   */\n      tag_57\n        /* \"#utility.yul\":2241:2243   */\n      0x23\n        /* \"#utility.yul\":2236:2239   */\n      dup4\n        /* \"#utility.yul\":2177:2244   */\n      tag_29\n      jump\t// in\n    tag_57:\n        /* \"#utility.yul\":2170:2244   */\n      swap2\n      pop\n        /* \"#utility.yul\":2253:2346   */\n      tag_58\n        /* \"#utility.yul\":2342:2345   */\n      dup3\n        /* \"#utility.yul\":2253:2346   */\n      tag_30\n      jump\t// in\n    tag_58:\n        /* \"#utility.yul\":2371:2373   */\n      0x40\n        /* \"#utility.yul\":2366:2369   */\n      dup3\n        /* \"#utility.yul\":2362:2374   */\n      add\n        /* \"#utility.yul\":2355:2374   */\n      swap1\n      pop\n        /* \"#utility.yul\":2014:2380   */\n      swap2\n      swap1\n      pop\n      jump\t// out\n        /* \"#utility.yul\":2386:2805   */\n    tag_17:\n        /* \"#utility.yul\":2552:2556   */\n      0x00\n        /* \"#utility.yul\":2590:2592   */\n      0x20\n        /* \"#utility.yul\":2579:2588   */\n      dup3\n        /* \"#utility.yul\":2575:2593   */\n      add\n        /* \"#utility.yul\":2567:2593   */\n      swap1\n      pop\n        /* \"#utility.yul\":2639:2648   */\n      dup2\n        /* \"#utility.yul\":2633:2637   */\n      dup2\n        /* \"#utility.yul\":2629:2649   */\n      sub\n        /* \"#utility.yul\":2625:2626   */\n      0x00\n        /* \"#utility.yul\":2614:2623   */\n      dup4\n        /* \"#utility.yul\":2610:2627   */\n      add\n        /* \"#utility.yul\":2603:2650   */\n      mstore\n        /* \"#utility.yul\":2667:2798   */\n      tag_60\n        /* \"#utility.yul\":2793:2797   */\n      dup2\n        /* \"#utility.yul\":2667:2798   */\n      tag_31\n      jump\t// in\n    tag_60:\n        /* \"#utility.yul\":2659:2798   */\n      swap1\n      pop\n        /* \"#utility.yul\":2386:2805   */\n      swap2\n      swap1\n      pop\n      jump\t// out\n        /* \"#utility.yul\":2811:2991   */\n    tag_32:\n        /* \"#utility.yul\":2859:2936   */\n      0x4e487b7100000000000000000000000000000000000000000000000000000000\n        /* \"#utility.yul\":2856:2857   */\n      0x00\n        /* \"#utility.yul\":2849:2937   */\n      mstore\n        /* \"#utility.yul\":2956:2960   */\n      0x11\n        /* \"#utility.yul\":2953:2954   */\n      0x04\n        /* \"#utility.yul\":2946:2961   */\n      mstore\n        /* \"#utility.yul\":2980:2984   */\n      0x24\n        /* \"#utility.yul\":2977:2978   */\n      0x00\n        /* \"#utility.yul\":2970:2985   */\n      revert\n        /* \"#utility.yul\":2997:3188   */\n    tag_19:\n        /* \"#utility.yul\":3037:3040   */\n      0x00\n        /* \"#utility.yul\":3056:3076   */\n      tag_63\n        /* \"#utility.yul\":3074:3075   */\n      dup3\n        /* \"#utility.yul\":3056:3076   */\n      tag_27\n      jump\t// in\n    tag_63:\n        /* \"#utility.yul\":3051:3076   */\n      swap2\n      pop\n        /* \"#utility.yul\":3090:3110   */\n      tag_64\n        /* \"#utility.yul\":3108:3109   */\n      dup4\n        /* \"#utility.yul\":3090:3110   */\n      tag_27\n      jump\t// in\n    tag_64:\n        /* \"#utility.yul\":3085:3110   */\n      swap3\n      pop\n        /* \"#utility.yul\":3133:3134   */\n      dup3\n        /* \"#utility.yul\":3130:3131   */\n      dup3\n        /* \"#utility.yul\":3126:3135   */\n      add\n        /* \"#utility.yul\":3119:3135   */\n      swap1\n      pop\n        /* \"#utility.yul\":3154:3157   */\n      dup1\n        /* \"#utility.yul\":3151:3152   */\n      dup3\n        /* \"#utility.yul\":3148:3158   */\n      gt\n        /* \"#utility.yul\":3145:3181   */\n      iszero\n      tag_65\n      jumpi\n        /* \"#utility.yul\":3161:3179   */\n      tag_66\n      tag_32\n      jump\t// in\n    tag_66:\n        /* \"#utility.yul\":3145:3181   */\n    tag_65:\n        /* \"#utility.yul\":2997:3188   */\n      swap3\n      swap2\n      pop\n      pop\n      jump\t// out\n\n    auxdata: 0xa26469706673582212202b3a0be801f606b95fd7160a8f8221dc2f2cc27000b1dfcf0e89013e21bb2b3d64736f6c634300081c0033\n}\n",
				"bytecode": {
					"linkReferences": {},
					"object": "6080604052348015600e575f5ffd5b5061033b8061001c5f395ff3fe608060405260043610610028575f3560e01c806370a082311461002c578063d0e30db014610068575b5f5ffd5b348015610037575f5ffd5b50610052600480360381019061004d91906101ab565b610072565b60405161005f91906101ee565b60405180910390f35b6100706100b7565b005b5f5f5f8373ffffffffffffffffffffffffffffffffffffffff1673ffffffffffffffffffffffffffffffffffffffff1681526020019081526020015f20549050919050565b5f34116100f9576040517f08c379a00000000000000000000000000000000000000000000000000000000081526004016100f090610287565b60405180910390fd5b345f5f3373ffffffffffffffffffffffffffffffffffffffff1673ffffffffffffffffffffffffffffffffffffffff1681526020019081526020015f205f82825461014491906102d2565b92505081905550565b5f5ffd5b5f73ffffffffffffffffffffffffffffffffffffffff82169050919050565b5f61017a82610151565b9050919050565b61018a81610170565b8114610194575f5ffd5b50565b5f813590506101a581610181565b92915050565b5f602082840312156101c0576101bf61014d565b5b5f6101cd84828501610197565b91505092915050565b5f819050919050565b6101e8816101d6565b82525050565b5f6020820190506102015f8301846101df565b92915050565b5f82825260208201905092915050565b7f616e20617474656d7020746f206465706f7a69742061207a65726f20616d6f755f8201527f6e742e0000000000000000000000000000000000000000000000000000000000602082015250565b5f610271602383610207565b915061027c82610217565b604082019050919050565b5f6020820190508181035f83015261029e81610265565b9050919050565b7f4e487b71000000000000000000000000000000000000000000000000000000005f52601160045260245ffd5b5f6102dc826101d6565b91506102e7836101d6565b92508282019050808211156102ff576102fe6102a5565b5b9291505056fea26469706673582212202b3a0be801f606b95fd7160a8f8221dc2f2cc27000b1dfcf0e89013e21bb2b3d64736f6c634300081c0033",
					"opcodes": "PUSH1 0x80 PUSH1 0x40 MSTORE CALLVALUE DUP1 ISZERO PUSH1 0xE JUMPI PUSH0 PUSH0 REVERT JUMPDEST POP PUSH2 0x33B DUP1 PUSH2 0x1C PUSH0 CODECOPY PUSH0 RETURN INVALID PUSH1 0x80 PUSH1 0x40 MSTORE PUSH1 0x4 CALLDATASIZE LT PUSH2 0x28 JUMPI PUSH0 CALLDATALOAD PUSH1 0xE0 SHR DUP1 PUSH4 0x70A08231 EQ PUSH2 0x2C JUMPI DUP1 PUSH4 0xD0E30DB0 EQ PUSH2 0x68 JUMPI JUMPDEST PUSH0 PUSH0 REVERT JUMPDEST CALLVALUE DUP1 ISZERO PUSH2 0x37 JUMPI PUSH0 PUSH0 REVERT JUMPDEST POP PUSH2 0x52 PUSH1 0x4 DUP1 CALLDATASIZE SUB DUP2 ADD SWAP1 PUSH2 0x4D SWAP2 SWAP1 PUSH2 0x1AB JUMP JUMPDEST PUSH2 0x72 JUMP JUMPDEST PUSH1 0x40 MLOAD PUSH2 0x5F SWAP2 SWAP1 PUSH2 0x1EE JUMP JUMPDEST PUSH1 0x40 MLOAD DUP1 SWAP2 SUB SWAP1 RETURN JUMPDEST PUSH2 0x70 PUSH2 0xB7 JUMP JUMPDEST STOP JUMPDEST PUSH0 PUSH0 PUSH0 DUP4 PUSH20 0xFFFFFFFFFFFFFFFFFFFFFFFFFFFFFFFFFFFFFFFF AND PUSH20 0xFFFFFFFFFFFFFFFFFFFFFFFFFFFFFFFFFFFFFFFF AND DUP2 MSTORE PUSH1 0x20 ADD SWAP1 DUP2 MSTORE PUSH1 0x20 ADD PUSH0 KECCAK256 SLOAD SWAP1 POP SWAP2 SWAP1 POP JUMP JUMPDEST PUSH0 CALLVALUE GT PUSH2 0xF9 JUMPI PUSH1 0x40 MLOAD PUSH32 0x8C379A000000000000000000000000000000000000000000000000000000000 DUP2 MSTORE PUSH1 0x4 ADD PUSH2 0xF0 SWAP1 PUSH2 0x287 JUMP JUMPDEST PUSH1 0x40 MLOAD DUP1 SWAP2 SUB SWAP1 REVERT JUMPDEST CALLVALUE PUSH0 PUSH0 CALLER PUSH20 0xFFFFFFFFFFFFFFFFFFFFFFFFFFFFFFFFFFFFFFFF AND PUSH20 0xFFFFFFFFFFFFFFFFFFFFFFFFFFFFFFFFFFFFFFFF AND DUP2 MSTORE PUSH1 0x20 ADD SWAP1 DUP2 MSTORE PUSH1 0x20 ADD PUSH0 KECCAK256 PUSH0 DUP3 DUP3 SLOAD PUSH2 0x144 SWAP2 SWAP1 PUSH2 0x2D2 JUMP JUMPDEST SWAP3 POP POP DUP2 SWAP1 SSTORE POP JUMP JUMPDEST PUSH0 PUSH0 REVERT JUMPDEST PUSH0 PUSH20 0xFFFFFFFFFFFFFFFFFFFFFFFFFFFFFFFFFFFFFFFF DUP3 AND SWAP1 POP SWAP2 SWAP1 POP JUMP JUMPDEST PUSH0 PUSH2 0x17A DUP3 PUSH2 0x151 JUMP JUMPDEST SWAP1 POP SWAP2 SWAP1 POP JUMP JUMPDEST PUSH2 0x18A DUP2 PUSH2 0x170 JUMP JUMPDEST DUP2 EQ PUSH2 0x194 JUMPI PUSH0 PUSH0 REVERT JUMPDEST POP JUMP JUMPDEST PUSH0 DUP2 CALLDATALOAD SWAP1 POP PUSH2 0x1A5 DUP2 PUSH2 0x181 JUMP JUMPDEST SWAP3 SWAP2 POP POP JUMP JUMPDEST PUSH0 PUSH1 0x20 DUP3 DUP5 SUB SLT ISZERO PUSH2 0x1C0 JUMPI PUSH2 0x1BF PUSH2 0x14D JUMP JUMPDEST JUMPDEST PUSH0 PUSH2 0x1CD DUP5 DUP3 DUP6 ADD PUSH2 0x197 JUMP JUMPDEST SWAP2 POP POP SWAP3 SWAP2 POP POP JUMP JUMPDEST PUSH0 DUP2 SWAP1 POP SWAP2 SWAP1 POP JUMP JUMPDEST PUSH2 0x1E8 DUP2 PUSH2 0x1D6 JUMP JUMPDEST DUP3 MSTORE POP POP JUMP JUMPDEST PUSH0 PUSH1 0x20 DUP3 ADD SWAP1 POP PUSH2 0x201 PUSH0 DUP4 ADD DUP5 PUSH2 0x1DF JUMP JUMPDEST SWAP3 SWAP2 POP POP JUMP JUMPDEST PUSH0 DUP3 DUP3 MSTORE PUSH1 0x20 DUP3 ADD SWAP1 POP SWAP3 SWAP2 POP POP JUMP JUMPDEST PUSH32 0x616E20617474656D7020746F206465706F7A69742061207A65726F20616D6F75 PUSH0 DUP3 ADD MSTORE PUSH32 0x6E742E0000000000000000000000000000000000000000000000000000000000 PUSH1 0x20 DUP3 ADD MSTORE POP JUMP JUMPDEST PUSH0 PUSH2 0x271 PUSH1 0x23 DUP4 PUSH2 0x207 JUMP JUMPDEST SWAP2 POP PUSH2 0x27C DUP3 PUSH2 0x217 JUMP JUMPDEST PUSH1 0x40 DUP3 ADD SWAP1 POP SWAP2 SWAP1 POP JUMP JUMPDEST PUSH0 PUSH1 0x20 DUP3 ADD SWAP1 POP DUP2 DUP2 SUB PUSH0 DUP4 ADD MSTORE PUSH2 0x29E DUP2 PUSH2 0x265 JUMP JUMPDEST SWAP1 POP SWAP2 SWAP1 POP JUMP JUMPDEST PUSH32 0x4E487B7100000000000000000000000000000000000000000000000000000000 PUSH0 MSTORE PUSH1 0x11 PUSH1 0x4 MSTORE PUSH1 0x24 PUSH0 REVERT JUMPDEST PUSH0 PUSH2 0x2DC DUP3 PUSH2 0x1D6 JUMP JUMPDEST SWAP2 POP PUSH2 0x2E7 DUP4 PUSH2 0x1D6 JUMP JUMPDEST SWAP3 POP DUP3 DUP3 ADD SWAP1 POP DUP1 DUP3 GT ISZERO PUSH2 0x2FF JUMPI PUSH2 0x2FE PUSH2 0x2A5 JUMP JUMPDEST JUMPDEST SWAP3 SWAP2 POP POP JUMP INVALID LOG2 PUSH5 0x6970667358 0x22 SLT KECCAK256 0x2B GASPRICE SIGNEXTEND 0xE8 ADD 0xF6 MOD 0xB9 PUSH0 0xD7 AND EXP DUP16 DUP3 0x21 0xDC 0x2F 0x2C 0xC2 PUSH17 0xB1DFCF0E89013E21BB2B3D64736F6C63 NUMBER STOP ADDMOD SHR STOP CALLER "
				},
				"gasEstimates": {
					"creation": {
						"codeDepositCost": "165400",
						"executionCost": "206",
						"totalCost": "165606"
					},
					"external": {
						"balanceOf(address)": "2806",
						"deposit()": "infinite"
					}
				},
				"methodIdentifiers": {
					"balanceOf(address)": "70a08231",
					"deposit()": "d0e30db0"
				}
			},
			"storageLayout": {
				"storage": [
					{
						"astId": 8,
						"contract": "contracts/Bank.sol:Bank",
						"label": "balances",
						"offset": 0,
						"slot": "0",
						"type": "t_mapping(t_address,t_uint256)"
					}
				],
				"types": {
					"t_address": {
						"encoding": "inplace",
						"label": "address",
						"numberOfBytes": "20"
					},
					"t_mapping(t_address,t_uint256)": {
						"encoding": "mapping",
						"key": "t_address",
						"label": "mapping(address => uint256)",
						"numberOfBytes": "32",
						"value": "t_uint256"
					},
					"t_uint256": {
						"encoding": "inplace",
						"label": "uint256",
						"numberOfBytes": "32"
					}
				}
			},
			"userdoc": {
				"kind": "user",
				"methods": {},
				"version": 1
			}
		}
	}
}